{
	"BasicInvestmentDAOs/InvestmentContract.sol": {
		"InvestmentContract": {
			"abi": [
				{
					"inputs": [
						{
							"internalType": "address",
							"name": "_oracleAddress",
							"type": "address"
						}
					],
					"stateMutability": "nonpayable",
					"type": "constructor"
				},
				{
					"inputs": [],
					"name": "oracle",
					"outputs": [
						{
							"internalType": "contract SimpleOracle",
							"name": "",
							"type": "address"
						}
					],
					"stateMutability": "view",
					"type": "function"
				},
				{
					"inputs": [],
					"name": "shouldInvest",
					"outputs": [
						{
							"internalType": "bool",
							"name": "",
							"type": "bool"
						}
					],
					"stateMutability": "view",
					"type": "function"
				}
			],
			"devdoc": {
				"kind": "dev",
				"methods": {},
				"version": 1
			},
			"evm": {
				"assembly": "    /* \"BasicInvestmentDAOs/InvestmentContract.sol\":55:492  contract InvestmentContract {... */\n  mstore(0x40, 0x80)\n    /* \"BasicInvestmentDAOs/InvestmentContract.sol\":122:212  constructor(address _oracleAddress) {... */\n  callvalue\n  dup1\n  iszero\n  tag_1\n  jumpi\n  0x00\n  dup1\n  revert\ntag_1:\n  pop\n  mload(0x40)\n  sub(codesize, bytecodeSize)\n  dup1\n  bytecodeSize\n  dup4\n  codecopy\n  dup2\n  dup2\n  add\n  0x40\n  mstore\n  dup2\n  add\n  swap1\n  tag_2\n  swap2\n  swap1\n  tag_3\n  jump\t// in\ntag_2:\n    /* \"BasicInvestmentDAOs/InvestmentContract.sol\":190:204  _oracleAddress */\n  dup1\n    /* \"BasicInvestmentDAOs/InvestmentContract.sol\":168:174  oracle */\n  0x00\n  dup1\n    /* \"BasicInvestmentDAOs/InvestmentContract.sol\":168:205  oracle = SimpleOracle(_oracleAddress) */\n  0x0100\n  exp\n  dup2\n  sload\n  dup2\n  0xffffffffffffffffffffffffffffffffffffffff\n  mul\n  not\n  and\n  swap1\n  dup4\n  0xffffffffffffffffffffffffffffffffffffffff\n  and\n  mul\n  or\n  swap1\n  sstore\n  pop\n    /* \"BasicInvestmentDAOs/InvestmentContract.sol\":122:212  constructor(address _oracleAddress) {... */\n  pop\n    /* \"BasicInvestmentDAOs/InvestmentContract.sol\":55:492  contract InvestmentContract {... */\n  jump(tag_6)\n    /* \"#utility.yul\":88:205   */\ntag_8:\n    /* \"#utility.yul\":197:198   */\n  0x00\n    /* \"#utility.yul\":194:195   */\n  dup1\n    /* \"#utility.yul\":187:199   */\n  revert\n    /* \"#utility.yul\":334:460   */\ntag_10:\n    /* \"#utility.yul\":371:378   */\n  0x00\n    /* \"#utility.yul\":411:453   */\n  0xffffffffffffffffffffffffffffffffffffffff\n    /* \"#utility.yul\":404:409   */\n  dup3\n    /* \"#utility.yul\":400:454   */\n  and\n    /* \"#utility.yul\":389:454   */\n  swap1\n  pop\n    /* \"#utility.yul\":334:460   */\n  swap2\n  swap1\n  pop\n  jump\t// out\n    /* \"#utility.yul\":466:562   */\ntag_11:\n    /* \"#utility.yul\":503:510   */\n  0x00\n    /* \"#utility.yul\":532:556   */\n  tag_20\n    /* \"#utility.yul\":550:555   */\n  dup3\n    /* \"#utility.yul\":532:556   */\n  tag_10\n  jump\t// in\ntag_20:\n    /* \"#utility.yul\":521:556   */\n  swap1\n  pop\n    /* \"#utility.yul\":466:562   */\n  swap2\n  swap1\n  pop\n  jump\t// out\n    /* \"#utility.yul\":568:690   */\ntag_12:\n    /* \"#utility.yul\":641:665   */\n  tag_22\n    /* \"#utility.yul\":659:664   */\n  dup2\n    /* \"#utility.yul\":641:665   */\n  tag_11\n  jump\t// in\ntag_22:\n    /* \"#utility.yul\":634:639   */\n  dup2\n    /* \"#utility.yul\":631:666   */\n  eq\n    /* \"#utility.yul\":621:684   */\n  tag_23\n  jumpi\n    /* \"#utility.yul\":680:681   */\n  0x00\n    /* \"#utility.yul\":677:678   */\n  dup1\n    /* \"#utility.yul\":670:682   */\n  revert\n    /* \"#utility.yul\":621:684   */\ntag_23:\n    /* \"#utility.yul\":568:690   */\n  pop\n  jump\t// out\n    /* \"#utility.yul\":696:839   */\ntag_13:\n    /* \"#utility.yul\":753:758   */\n  0x00\n    /* \"#utility.yul\":784:790   */\n  dup2\n    /* \"#utility.yul\":778:791   */\n  mload\n    /* \"#utility.yul\":769:791   */\n  swap1\n  pop\n    /* \"#utility.yul\":800:833   */\n  tag_25\n    /* \"#utility.yul\":827:832   */\n  dup2\n    /* \"#utility.yul\":800:833   */\n  tag_12\n  jump\t// in\ntag_25:\n    /* \"#utility.yul\":696:839   */\n  swap3\n  swap2\n  pop\n  pop\n  jump\t// out\n    /* \"#utility.yul\":845:1196   */\ntag_3:\n    /* \"#utility.yul\":915:921   */\n  0x00\n    /* \"#utility.yul\":964:966   */\n  0x20\n    /* \"#utility.yul\":952:961   */\n  dup3\n    /* \"#utility.yul\":943:950   */\n  dup5\n    /* \"#utility.yul\":939:962   */\n  sub\n    /* \"#utility.yul\":935:967   */\n  slt\n    /* \"#utility.yul\":932:1051   */\n  iszero\n  tag_27\n  jumpi\n    /* \"#utility.yul\":970:1049   */\n  tag_28\n  tag_8\n  jump\t// in\ntag_28:\n    /* \"#utility.yul\":932:1051   */\ntag_27:\n    /* \"#utility.yul\":1090:1091   */\n  0x00\n    /* \"#utility.yul\":1115:1179   */\n  tag_29\n    /* \"#utility.yul\":1171:1178   */\n  dup5\n    /* \"#utility.yul\":1162:1168   */\n  dup3\n    /* \"#utility.yul\":1151:1160   */\n  dup6\n    /* \"#utility.yul\":1147:1169   */\n  add\n    /* \"#utility.yul\":1115:1179   */\n  tag_13\n  jump\t// in\ntag_29:\n    /* \"#utility.yul\":1105:1179   */\n  swap2\n  pop\n    /* \"#utility.yul\":1061:1189   */\n  pop\n    /* \"#utility.yul\":845:1196   */\n  swap3\n  swap2\n  pop\n  pop\n  jump\t// out\n    /* \"BasicInvestmentDAOs/InvestmentContract.sol\":55:492  contract InvestmentContract {... */\ntag_6:\n  dataSize(sub_0)\n  dup1\n  dataOffset(sub_0)\n  0x00\n  codecopy\n  0x00\n  return\nstop\n\nsub_0: assembly {\n        /* \"BasicInvestmentDAOs/InvestmentContract.sol\":55:492  contract InvestmentContract {... */\n      mstore(0x40, 0x80)\n      callvalue\n      dup1\n      iszero\n      tag_1\n      jumpi\n      0x00\n      dup1\n      revert\n    tag_1:\n      pop\n      jumpi(tag_2, lt(calldatasize, 0x04))\n      shr(0xe0, calldataload(0x00))\n      dup1\n      0x3905a3a1\n      eq\n      tag_3\n      jumpi\n      dup1\n      0x7dc0d1d0\n      eq\n      tag_4\n      jumpi\n    tag_2:\n      0x00\n      dup1\n      revert\n        /* \"BasicInvestmentDAOs/InvestmentContract.sol\":218:490  function shouldInvest() public view returns (bool) {... */\n    tag_3:\n      tag_5\n      tag_6\n      jump\t// in\n    tag_5:\n      mload(0x40)\n      tag_7\n      swap2\n      swap1\n      tag_8\n      jump\t// in\n    tag_7:\n      mload(0x40)\n      dup1\n      swap2\n      sub\n      swap1\n      return\n        /* \"BasicInvestmentDAOs/InvestmentContract.sol\":89:115  SimpleOracle public oracle */\n    tag_4:\n      tag_9\n      tag_10\n      jump\t// in\n    tag_9:\n      mload(0x40)\n      tag_11\n      swap2\n      swap1\n      tag_12\n      jump\t// in\n    tag_11:\n      mload(0x40)\n      dup1\n      swap2\n      sub\n      swap1\n      return\n        /* \"BasicInvestmentDAOs/InvestmentContract.sol\":218:490  function shouldInvest() public view returns (bool) {... */\n    tag_6:\n        /* \"BasicInvestmentDAOs/InvestmentContract.sol\":263:267  bool */\n      0x00\n        /* \"BasicInvestmentDAOs/InvestmentContract.sol\":279:292  uint nftPrice */\n      dup1\n        /* \"BasicInvestmentDAOs/InvestmentContract.sol\":295:301  oracle */\n      0x00\n      dup1\n      sload\n      swap1\n      0x0100\n      exp\n      swap1\n      div\n      0xffffffffffffffffffffffffffffffffffffffff\n      and\n        /* \"BasicInvestmentDAOs/InvestmentContract.sol\":295:313  oracle.getNFTPrice */\n      0xffffffffffffffffffffffffffffffffffffffff\n      and\n      0xfb107a4f\n        /* \"BasicInvestmentDAOs/InvestmentContract.sol\":295:315  oracle.getNFTPrice() */\n      mload(0x40)\n      dup2\n      0xffffffff\n      and\n      0xe0\n      shl\n      dup2\n      mstore\n      0x04\n      add\n      0x20\n      mload(0x40)\n      dup1\n      dup4\n      sub\n      dup2\n      dup7\n      gas\n      staticcall\n      iszero\n      dup1\n      iszero\n      tag_15\n      jumpi\n      returndatasize\n      0x00\n      dup1\n      returndatacopy\n      revert(0x00, returndatasize)\n    tag_15:\n      pop\n      pop\n      pop\n      pop\n      mload(0x40)\n      returndatasize\n      not(0x1f)\n      0x1f\n      dup3\n      add\n      and\n      dup3\n      add\n      dup1\n      0x40\n      mstore\n      pop\n      dup2\n      add\n      swap1\n      tag_16\n      swap2\n      swap1\n      tag_17\n      jump\t// in\n    tag_16:\n        /* \"BasicInvestmentDAOs/InvestmentContract.sol\":279:315  uint nftPrice = oracle.getNFTPrice() */\n      swap1\n      pop\n        /* \"BasicInvestmentDAOs/InvestmentContract.sol\":393:403  1000 ether */\n      0x3635c9adc5dea00000\n        /* \"BasicInvestmentDAOs/InvestmentContract.sol\":382:390  nftPrice */\n      dup2\n        /* \"BasicInvestmentDAOs/InvestmentContract.sol\":382:403  nftPrice > 1000 ether */\n      gt\n        /* \"BasicInvestmentDAOs/InvestmentContract.sol\":378:462  if (nftPrice > 1000 ether) { // Example threshold... */\n      iszero\n      tag_18\n      jumpi\n        /* \"BasicInvestmentDAOs/InvestmentContract.sol\":447:451  true */\n      0x01\n        /* \"BasicInvestmentDAOs/InvestmentContract.sol\":440:451  return true */\n      swap2\n      pop\n      pop\n      jump(tag_13)\n        /* \"BasicInvestmentDAOs/InvestmentContract.sol\":378:462  if (nftPrice > 1000 ether) { // Example threshold... */\n    tag_18:\n        /* \"BasicInvestmentDAOs/InvestmentContract.sol\":478:483  false */\n      0x00\n        /* \"BasicInvestmentDAOs/InvestmentContract.sol\":471:483  return false */\n      swap2\n      pop\n      pop\n        /* \"BasicInvestmentDAOs/InvestmentContract.sol\":218:490  function shouldInvest() public view returns (bool) {... */\n    tag_13:\n      swap1\n      jump\t// out\n        /* \"BasicInvestmentDAOs/InvestmentContract.sol\":89:115  SimpleOracle public oracle */\n    tag_10:\n      0x00\n      dup1\n      sload\n      swap1\n      0x0100\n      exp\n      swap1\n      div\n      0xffffffffffffffffffffffffffffffffffffffff\n      and\n      dup2\n      jump\t// out\n        /* \"#utility.yul\":7:97   */\n    tag_19:\n        /* \"#utility.yul\":41:48   */\n      0x00\n        /* \"#utility.yul\":84:89   */\n      dup2\n        /* \"#utility.yul\":77:90   */\n      iszero\n        /* \"#utility.yul\":70:91   */\n      iszero\n        /* \"#utility.yul\":59:91   */\n      swap1\n      pop\n        /* \"#utility.yul\":7:97   */\n      swap2\n      swap1\n      pop\n      jump\t// out\n        /* \"#utility.yul\":103:212   */\n    tag_20:\n        /* \"#utility.yul\":184:205   */\n      tag_36\n        /* \"#utility.yul\":199:204   */\n      dup2\n        /* \"#utility.yul\":184:205   */\n      tag_19\n      jump\t// in\n    tag_36:\n        /* \"#utility.yul\":179:182   */\n      dup3\n        /* \"#utility.yul\":172:206   */\n      mstore\n        /* \"#utility.yul\":103:212   */\n      pop\n      pop\n      jump\t// out\n        /* \"#utility.yul\":218:428   */\n    tag_8:\n        /* \"#utility.yul\":305:309   */\n      0x00\n        /* \"#utility.yul\":343:345   */\n      0x20\n        /* \"#utility.yul\":332:341   */\n      dup3\n        /* \"#utility.yul\":328:346   */\n      add\n        /* \"#utility.yul\":320:346   */\n      swap1\n      pop\n        /* \"#utility.yul\":356:421   */\n      tag_38\n        /* \"#utility.yul\":418:419   */\n      0x00\n        /* \"#utility.yul\":407:416   */\n      dup4\n        /* \"#utility.yul\":403:420   */\n      add\n        /* \"#utility.yul\":394:400   */\n      dup5\n        /* \"#utility.yul\":356:421   */\n      tag_20\n      jump\t// in\n    tag_38:\n        /* \"#utility.yul\":218:428   */\n      swap3\n      swap2\n      pop\n      pop\n      jump\t// out\n        /* \"#utility.yul\":434:560   */\n    tag_21:\n        /* \"#utility.yul\":471:478   */\n      0x00\n        /* \"#utility.yul\":511:553   */\n      0xffffffffffffffffffffffffffffffffffffffff\n        /* \"#utility.yul\":504:509   */\n      dup3\n        /* \"#utility.yul\":500:554   */\n      and\n        /* \"#utility.yul\":489:554   */\n      swap1\n      pop\n        /* \"#utility.yul\":434:560   */\n      swap2\n      swap1\n      pop\n      jump\t// out\n        /* \"#utility.yul\":566:626   */\n    tag_22:\n        /* \"#utility.yul\":594:597   */\n      0x00\n        /* \"#utility.yul\":615:620   */\n      dup2\n        /* \"#utility.yul\":608:620   */\n      swap1\n      pop\n        /* \"#utility.yul\":566:626   */\n      swap2\n      swap1\n      pop\n      jump\t// out\n        /* \"#utility.yul\":632:774   */\n    tag_23:\n        /* \"#utility.yul\":682:691   */\n      0x00\n        /* \"#utility.yul\":715:768   */\n      tag_42\n        /* \"#utility.yul\":733:767   */\n      tag_43\n        /* \"#utility.yul\":742:766   */\n      tag_44\n        /* \"#utility.yul\":760:765   */\n      dup5\n        /* \"#utility.yul\":742:766   */\n      tag_21\n      jump\t// in\n    tag_44:\n        /* \"#utility.yul\":733:767   */\n      tag_22\n      jump\t// in\n    tag_43:\n        /* \"#utility.yul\":715:768   */\n      tag_21\n      jump\t// in\n    tag_42:\n        /* \"#utility.yul\":702:768   */\n      swap1\n      pop\n        /* \"#utility.yul\":632:774   */\n      swap2\n      swap1\n      pop\n      jump\t// out\n        /* \"#utility.yul\":780:906   */\n    tag_24:\n        /* \"#utility.yul\":830:839   */\n      0x00\n        /* \"#utility.yul\":863:900   */\n      tag_46\n        /* \"#utility.yul\":894:899   */\n      dup3\n        /* \"#utility.yul\":863:900   */\n      tag_23\n      jump\t// in\n    tag_46:\n        /* \"#utility.yul\":850:900   */\n      swap1\n      pop\n        /* \"#utility.yul\":780:906   */\n      swap2\n      swap1\n      pop\n      jump\t// out\n        /* \"#utility.yul\":912:1057   */\n    tag_25:\n        /* \"#utility.yul\":981:990   */\n      0x00\n        /* \"#utility.yul\":1014:1051   */\n      tag_48\n        /* \"#utility.yul\":1045:1050   */\n      dup3\n        /* \"#utility.yul\":1014:1051   */\n      tag_24\n      jump\t// in\n    tag_48:\n        /* \"#utility.yul\":1001:1051   */\n      swap1\n      pop\n        /* \"#utility.yul\":912:1057   */\n      swap2\n      swap1\n      pop\n      jump\t// out\n        /* \"#utility.yul\":1063:1232   */\n    tag_26:\n        /* \"#utility.yul\":1169:1225   */\n      tag_50\n        /* \"#utility.yul\":1219:1224   */\n      dup2\n        /* \"#utility.yul\":1169:1225   */\n      tag_25\n      jump\t// in\n    tag_50:\n        /* \"#utility.yul\":1164:1167   */\n      dup3\n        /* \"#utility.yul\":1157:1226   */\n      mstore\n        /* \"#utility.yul\":1063:1232   */\n      pop\n      pop\n      jump\t// out\n        /* \"#utility.yul\":1238:1498   */\n    tag_12:\n        /* \"#utility.yul\":1350:1354   */\n      0x00\n        /* \"#utility.yul\":1388:1390   */\n      0x20\n        /* \"#utility.yul\":1377:1386   */\n      dup3\n        /* \"#utility.yul\":1373:1391   */\n      add\n        /* \"#utility.yul\":1365:1391   */\n      swap1\n      pop\n        /* \"#utility.yul\":1401:1491   */\n      tag_52\n        /* \"#utility.yul\":1488:1489   */\n      0x00\n        /* \"#utility.yul\":1477:1486   */\n      dup4\n        /* \"#utility.yul\":1473:1490   */\n      add\n        /* \"#utility.yul\":1464:1470   */\n      dup5\n        /* \"#utility.yul\":1401:1491   */\n      tag_26\n      jump\t// in\n    tag_52:\n        /* \"#utility.yul\":1238:1498   */\n      swap3\n      swap2\n      pop\n      pop\n      jump\t// out\n        /* \"#utility.yul\":1585:1702   */\n    tag_28:\n        /* \"#utility.yul\":1694:1695   */\n      0x00\n        /* \"#utility.yul\":1691:1692   */\n      dup1\n        /* \"#utility.yul\":1684:1696   */\n      revert\n        /* \"#utility.yul\":1831:1908   */\n    tag_30:\n        /* \"#utility.yul\":1868:1875   */\n      0x00\n        /* \"#utility.yul\":1897:1902   */\n      dup2\n        /* \"#utility.yul\":1886:1902   */\n      swap1\n      pop\n        /* \"#utility.yul\":1831:1908   */\n      swap2\n      swap1\n      pop\n      jump\t// out\n        /* \"#utility.yul\":1914:2036   */\n    tag_31:\n        /* \"#utility.yul\":1987:2011   */\n      tag_58\n        /* \"#utility.yul\":2005:2010   */\n      dup2\n        /* \"#utility.yul\":1987:2011   */\n      tag_30\n      jump\t// in\n    tag_58:\n        /* \"#utility.yul\":1980:1985   */\n      dup2\n        /* \"#utility.yul\":1977:2012   */\n      eq\n        /* \"#utility.yul\":1967:2030   */\n      tag_59\n      jumpi\n        /* \"#utility.yul\":2026:2027   */\n      0x00\n        /* \"#utility.yul\":2023:2024   */\n      dup1\n        /* \"#utility.yul\":2016:2028   */\n      revert\n        /* \"#utility.yul\":1967:2030   */\n    tag_59:\n        /* \"#utility.yul\":1914:2036   */\n      pop\n      jump\t// out\n        /* \"#utility.yul\":2042:2185   */\n    tag_32:\n        /* \"#utility.yul\":2099:2104   */\n      0x00\n        /* \"#utility.yul\":2130:2136   */\n      dup2\n        /* \"#utility.yul\":2124:2137   */\n      mload\n        /* \"#utility.yul\":2115:2137   */\n      swap1\n      pop\n        /* \"#utility.yul\":2146:2179   */\n      tag_61\n        /* \"#utility.yul\":2173:2178   */\n      dup2\n        /* \"#utility.yul\":2146:2179   */\n      tag_31\n      jump\t// in\n    tag_61:\n        /* \"#utility.yul\":2042:2185   */\n      swap3\n      swap2\n      pop\n      pop\n      jump\t// out\n        /* \"#utility.yul\":2191:2542   */\n    tag_17:\n        /* \"#utility.yul\":2261:2267   */\n      0x00\n        /* \"#utility.yul\":2310:2312   */\n      0x20\n        /* \"#utility.yul\":2298:2307   */\n      dup3\n        /* \"#utility.yul\":2289:2296   */\n      dup5\n        /* \"#utility.yul\":2285:2308   */\n      sub\n        /* \"#utility.yul\":2281:2313   */\n      slt\n        /* \"#utility.yul\":2278:2397   */\n      iszero\n      tag_63\n      jumpi\n        /* \"#utility.yul\":2316:2395   */\n      tag_64\n      tag_28\n      jump\t// in\n    tag_64:\n        /* \"#utility.yul\":2278:2397   */\n    tag_63:\n        /* \"#utility.yul\":2436:2437   */\n      0x00\n        /* \"#utility.yul\":2461:2525   */\n      tag_65\n        /* \"#utility.yul\":2517:2524   */\n      dup5\n        /* \"#utility.yul\":2508:2514   */\n      dup3\n        /* \"#utility.yul\":2497:2506   */\n      dup6\n        /* \"#utility.yul\":2493:2515   */\n      add\n        /* \"#utility.yul\":2461:2525   */\n      tag_32\n      jump\t// in\n    tag_65:\n        /* \"#utility.yul\":2451:2525   */\n      swap2\n      pop\n        /* \"#utility.yul\":2407:2535   */\n      pop\n        /* \"#utility.yul\":2191:2542   */\n      swap3\n      swap2\n      pop\n      pop\n      jump\t// out\n\n    auxdata: 0xa26469706673582212201072b463093883e4609183a37b3093f4ab7dc0faad9537bbb845c7e134337d1864736f6c63430008180033\n}\n",
				"bytecode": {
					"linkReferences": {},
					"object": "608060405234801561000f575f80fd5b506040516103b43803806103b4833981810160405281019061003191906100d4565b805f806101000a81548173ffffffffffffffffffffffffffffffffffffffff021916908373ffffffffffffffffffffffffffffffffffffffff160217905550506100ff565b5f80fd5b5f73ffffffffffffffffffffffffffffffffffffffff82169050919050565b5f6100a38261007a565b9050919050565b6100b381610099565b81146100bd575f80fd5b50565b5f815190506100ce816100aa565b92915050565b5f602082840312156100e9576100e8610076565b5b5f6100f6848285016100c0565b91505092915050565b6102a88061010c5f395ff3fe608060405234801561000f575f80fd5b5060043610610034575f3560e01c80633905a3a1146100385780637dc0d1d014610056575b5f80fd5b610040610074565b60405161004d9190610164565b60405180910390f35b61005e610127565b60405161006b91906101f7565b60405180910390f35b5f805f8054906101000a900473ffffffffffffffffffffffffffffffffffffffff1673ffffffffffffffffffffffffffffffffffffffff1663fb107a4f6040518163ffffffff1660e01b8152600401602060405180830381865afa1580156100de573d5f803e3d5ffd5b505050506040513d601f19601f820116820180604052508101906101029190610247565b9050683635c9adc5dea0000081111561011f576001915050610124565b5f9150505b90565b5f8054906101000a900473ffffffffffffffffffffffffffffffffffffffff1681565b5f8115159050919050565b61015e8161014a565b82525050565b5f6020820190506101775f830184610155565b92915050565b5f73ffffffffffffffffffffffffffffffffffffffff82169050919050565b5f819050919050565b5f6101bf6101ba6101b58461017d565b61019c565b61017d565b9050919050565b5f6101d0826101a5565b9050919050565b5f6101e1826101c6565b9050919050565b6101f1816101d7565b82525050565b5f60208201905061020a5f8301846101e8565b92915050565b5f80fd5b5f819050919050565b61022681610214565b8114610230575f80fd5b50565b5f815190506102418161021d565b92915050565b5f6020828403121561025c5761025b610210565b5b5f61026984828501610233565b9150509291505056fea26469706673582212201072b463093883e4609183a37b3093f4ab7dc0faad9537bbb845c7e134337d1864736f6c63430008180033",
					"opcodes": "PUSH1 0x80 PUSH1 0x40 MSTORE CALLVALUE DUP1 ISZERO PUSH2 0xF JUMPI PUSH0 DUP1 REVERT JUMPDEST POP PUSH1 0x40 MLOAD PUSH2 0x3B4 CODESIZE SUB DUP1 PUSH2 0x3B4 DUP4 CODECOPY DUP2 DUP2 ADD PUSH1 0x40 MSTORE DUP2 ADD SWAP1 PUSH2 0x31 SWAP2 SWAP1 PUSH2 0xD4 JUMP JUMPDEST DUP1 PUSH0 DUP1 PUSH2 0x100 EXP DUP2 SLOAD DUP2 PUSH20 0xFFFFFFFFFFFFFFFFFFFFFFFFFFFFFFFFFFFFFFFF MUL NOT AND SWAP1 DUP4 PUSH20 0xFFFFFFFFFFFFFFFFFFFFFFFFFFFFFFFFFFFFFFFF AND MUL OR SWAP1 SSTORE POP POP PUSH2 0xFF JUMP JUMPDEST PUSH0 DUP1 REVERT JUMPDEST PUSH0 PUSH20 0xFFFFFFFFFFFFFFFFFFFFFFFFFFFFFFFFFFFFFFFF DUP3 AND SWAP1 POP SWAP2 SWAP1 POP JUMP JUMPDEST PUSH0 PUSH2 0xA3 DUP3 PUSH2 0x7A JUMP JUMPDEST SWAP1 POP SWAP2 SWAP1 POP JUMP JUMPDEST PUSH2 0xB3 DUP2 PUSH2 0x99 JUMP JUMPDEST DUP2 EQ PUSH2 0xBD JUMPI PUSH0 DUP1 REVERT JUMPDEST POP JUMP JUMPDEST PUSH0 DUP2 MLOAD SWAP1 POP PUSH2 0xCE DUP2 PUSH2 0xAA JUMP JUMPDEST SWAP3 SWAP2 POP POP JUMP JUMPDEST PUSH0 PUSH1 0x20 DUP3 DUP5 SUB SLT ISZERO PUSH2 0xE9 JUMPI PUSH2 0xE8 PUSH2 0x76 JUMP JUMPDEST JUMPDEST PUSH0 PUSH2 0xF6 DUP5 DUP3 DUP6 ADD PUSH2 0xC0 JUMP JUMPDEST SWAP2 POP POP SWAP3 SWAP2 POP POP JUMP JUMPDEST PUSH2 0x2A8 DUP1 PUSH2 0x10C PUSH0 CODECOPY PUSH0 RETURN INVALID PUSH1 0x80 PUSH1 0x40 MSTORE CALLVALUE DUP1 ISZERO PUSH2 0xF JUMPI PUSH0 DUP1 REVERT JUMPDEST POP PUSH1 0x4 CALLDATASIZE LT PUSH2 0x34 JUMPI PUSH0 CALLDATALOAD PUSH1 0xE0 SHR DUP1 PUSH4 0x3905A3A1 EQ PUSH2 0x38 JUMPI DUP1 PUSH4 0x7DC0D1D0 EQ PUSH2 0x56 JUMPI JUMPDEST PUSH0 DUP1 REVERT JUMPDEST PUSH2 0x40 PUSH2 0x74 JUMP JUMPDEST PUSH1 0x40 MLOAD PUSH2 0x4D SWAP2 SWAP1 PUSH2 0x164 JUMP JUMPDEST PUSH1 0x40 MLOAD DUP1 SWAP2 SUB SWAP1 RETURN JUMPDEST PUSH2 0x5E PUSH2 0x127 JUMP JUMPDEST PUSH1 0x40 MLOAD PUSH2 0x6B SWAP2 SWAP1 PUSH2 0x1F7 JUMP JUMPDEST PUSH1 0x40 MLOAD DUP1 SWAP2 SUB SWAP1 RETURN JUMPDEST PUSH0 DUP1 PUSH0 DUP1 SLOAD SWAP1 PUSH2 0x100 EXP SWAP1 DIV PUSH20 0xFFFFFFFFFFFFFFFFFFFFFFFFFFFFFFFFFFFFFFFF AND PUSH20 0xFFFFFFFFFFFFFFFFFFFFFFFFFFFFFFFFFFFFFFFF AND PUSH4 0xFB107A4F PUSH1 0x40 MLOAD DUP2 PUSH4 0xFFFFFFFF AND PUSH1 0xE0 SHL DUP2 MSTORE PUSH1 0x4 ADD PUSH1 0x20 PUSH1 0x40 MLOAD DUP1 DUP4 SUB DUP2 DUP7 GAS STATICCALL ISZERO DUP1 ISZERO PUSH2 0xDE JUMPI RETURNDATASIZE PUSH0 DUP1 RETURNDATACOPY RETURNDATASIZE PUSH0 REVERT JUMPDEST POP POP POP POP PUSH1 0x40 MLOAD RETURNDATASIZE PUSH1 0x1F NOT PUSH1 0x1F DUP3 ADD AND DUP3 ADD DUP1 PUSH1 0x40 MSTORE POP DUP2 ADD SWAP1 PUSH2 0x102 SWAP2 SWAP1 PUSH2 0x247 JUMP JUMPDEST SWAP1 POP PUSH9 0x3635C9ADC5DEA00000 DUP2 GT ISZERO PUSH2 0x11F JUMPI PUSH1 0x1 SWAP2 POP POP PUSH2 0x124 JUMP JUMPDEST PUSH0 SWAP2 POP POP JUMPDEST SWAP1 JUMP JUMPDEST PUSH0 DUP1 SLOAD SWAP1 PUSH2 0x100 EXP SWAP1 DIV PUSH20 0xFFFFFFFFFFFFFFFFFFFFFFFFFFFFFFFFFFFFFFFF AND DUP2 JUMP JUMPDEST PUSH0 DUP2 ISZERO ISZERO SWAP1 POP SWAP2 SWAP1 POP JUMP JUMPDEST PUSH2 0x15E DUP2 PUSH2 0x14A JUMP JUMPDEST DUP3 MSTORE POP POP JUMP JUMPDEST PUSH0 PUSH1 0x20 DUP3 ADD SWAP1 POP PUSH2 0x177 PUSH0 DUP4 ADD DUP5 PUSH2 0x155 JUMP JUMPDEST SWAP3 SWAP2 POP POP JUMP JUMPDEST PUSH0 PUSH20 0xFFFFFFFFFFFFFFFFFFFFFFFFFFFFFFFFFFFFFFFF DUP3 AND SWAP1 POP SWAP2 SWAP1 POP JUMP JUMPDEST PUSH0 DUP2 SWAP1 POP SWAP2 SWAP1 POP JUMP JUMPDEST PUSH0 PUSH2 0x1BF PUSH2 0x1BA PUSH2 0x1B5 DUP5 PUSH2 0x17D JUMP JUMPDEST PUSH2 0x19C JUMP JUMPDEST PUSH2 0x17D JUMP JUMPDEST SWAP1 POP SWAP2 SWAP1 POP JUMP JUMPDEST PUSH0 PUSH2 0x1D0 DUP3 PUSH2 0x1A5 JUMP JUMPDEST SWAP1 POP SWAP2 SWAP1 POP JUMP JUMPDEST PUSH0 PUSH2 0x1E1 DUP3 PUSH2 0x1C6 JUMP JUMPDEST SWAP1 POP SWAP2 SWAP1 POP JUMP JUMPDEST PUSH2 0x1F1 DUP2 PUSH2 0x1D7 JUMP JUMPDEST DUP3 MSTORE POP POP JUMP JUMPDEST PUSH0 PUSH1 0x20 DUP3 ADD SWAP1 POP PUSH2 0x20A PUSH0 DUP4 ADD DUP5 PUSH2 0x1E8 JUMP JUMPDEST SWAP3 SWAP2 POP POP JUMP JUMPDEST PUSH0 DUP1 REVERT JUMPDEST PUSH0 DUP2 SWAP1 POP SWAP2 SWAP1 POP JUMP JUMPDEST PUSH2 0x226 DUP2 PUSH2 0x214 JUMP JUMPDEST DUP2 EQ PUSH2 0x230 JUMPI PUSH0 DUP1 REVERT JUMPDEST POP JUMP JUMPDEST PUSH0 DUP2 MLOAD SWAP1 POP PUSH2 0x241 DUP2 PUSH2 0x21D JUMP JUMPDEST SWAP3 SWAP2 POP POP JUMP JUMPDEST PUSH0 PUSH1 0x20 DUP3 DUP5 SUB SLT ISZERO PUSH2 0x25C JUMPI PUSH2 0x25B PUSH2 0x210 JUMP JUMPDEST JUMPDEST PUSH0 PUSH2 0x269 DUP5 DUP3 DUP6 ADD PUSH2 0x233 JUMP JUMPDEST SWAP2 POP POP SWAP3 SWAP2 POP POP JUMP INVALID LOG2 PUSH5 0x6970667358 0x22 SLT KECCAK256 LT PUSH19 0xB463093883E4609183A37B3093F4AB7DC0FAAD SWAP6 CALLDATACOPY 0xBB 0xB8 GASLIMIT 0xC7 0xE1 CALLVALUE CALLER PUSH30 0x1864736F6C63430008180033000000000000000000000000000000000000 "
				},
				"gasEstimates": {
					"creation": {
						"codeDepositCost": "136000",
						"executionCost": "infinite",
						"totalCost": "infinite"
					},
					"external": {
						"oracle()": "infinite",
						"shouldInvest()": "infinite"
					}
				},
				"methodIdentifiers": {
					"oracle()": "7dc0d1d0",
					"shouldInvest()": "3905a3a1"
				}
			},
			"storageLayout": {
				"storage": [
					{
						"astId": 5,
						"contract": "BasicInvestmentDAOs/InvestmentContract.sol:InvestmentContract",
						"label": "oracle",
						"offset": 0,
						"slot": "0",
						"type": "t_contract(SimpleOracle)62"
					}
				],
				"types": {
					"t_contract(SimpleOracle)62": {
						"encoding": "inplace",
						"label": "contract SimpleOracle",
						"numberOfBytes": "20"
					}
				}
			},
			"userdoc": {
				"kind": "user",
				"methods": {},
				"version": 1
			}
		}
	}
}